65507163916     2406201900210560COM SERV COBR                           -000000000012000000003028075700000000TOTAL DE MOVS. 000001                   
65507163916     2406201900210560IVA COMISION                            -000000000001920000003028056500000000TOTAL DE MOVS. 000001                   
65507163916     2406201915255234DEP EFECT ATM                           +0000000016000000000030440565007523290475703421939139202                     
65507163916     2506201901310560COM SERV COBR                           -000000000012000000003043936500000000TOTAL DE MOVS. 000001                   
65507163916     2506201901310560IVA COMISION                            -000000000001920000003043917300000000TOTAL DE MOVS. 000001                   
65507163916     2506201916195040DEP EN EFECTIV                          +0000000000020000000030439373004023160492803421939042212                     
65507163916     2506201916215040DEP EN EFECTIV                          +0000000000020000000030439573004023190499703421939042231                     
65507163916     2606201901460560COM SERV COBR                           -000000000024000000003043717300000000TOTAL DE MOVS. 000002                   
65507163916     2606201901460560IVA COMISION                            -000000000003840000003043678900000000TOTAL DE MOVS. 000002                   
