65507222960     04242019155451120000DEP EN EFECTIV                          +0000000000010000000000000100011245639275501411938361281                     
65507222960     04242019155451120000DEP EN EFECTIV                          +0000000000010000000000000100011245639275601411938361282                     
65507222960     04242019155451120000DEP EN EFECTIV                          +0000000000010000000000000100011245639275701411938361283                     
65507222960     04242019155451120000DEP EN EFECTIV                          +0000000000010000000000000100011245639275801411938361284                     
